:020000040000fa
:080000000002040000000000f2
:020000040000fa
:04000800fe020000f4
:020000040000fa
:04000c00fe020000f0
:020000040000fa
:04001000fe020000ec
:020000040000fa
:04001400fe020000e8
:020000040000fa
:04001800fe020000e4
:020000040000fa
:04001c00fe020000e0
:020000040000fa
:04002000fe020000dc
:020000040000fa
:04002400fe020000d8
:020000040000fa
:04002800fe020000d4
:020000040000fa
:04002c00fe020000d0
:020000040000fa
:04003000fe020000cc
:020000040000fa
:04003400fe020000c8
:020000040000fa
:04003800fe020000c4
:020000040000fa
:04003c00fe020000c0
:020000040000fa
:04004000fe020000bc
:020000040000fa
:04004400fe020000b8
:020000040000fa
:04004800fe020000b4
:020000040000fa
:04004c00fe020000b0
:020000040000fa
:04005000fe020000ac
:020000040000fa
:04005400fe020000a8
:020000040000fa
:04005800fe020000a4
:020000040000fa
:04005c00fe020000a0
:020000040000fa
:04006000fe0200009c
:020000040000fa
:04006400fe02000098
:020000040000fa
:04006800fe02000094
:020000040000fa
:04006c00fe02000090
:020000040000fa
:04007000fe0200008c
:020000040000fa
:04007400fe02000088
:020000040000fa
:04007800fe02000084
:020000040000fa
:04007c00fe02000080
:020000040000fa
:04008000fe0200007c
:020000040000fa
:04008400fe02000078
:020000040000fa
:04008800fe02000074
:020000040000fa
:04008c00fe02000070
:020000040000fa
:04009000fe0200006c
:020000040000fa
:04009400fe02000068
:020000040000fa
:04009800fe02000064
:020000040000fa
:04009c00fe02000060
:020000040000fa
:0400a000fe0200005c
:020000040000fa
:0400a400fe02000058
:020000040000fa
:0400a800fe02000054
:020000040000fa
:0400ac00fe02000050
:020000040000fa
:0400b000fe0200004c
:020000040000fa
:0400b400fe02000048
:020000040000fa
:0400b800fe02000044
:020000040000fa
:0400bc00fe02000040
:020000040000fa
:0400c000fe0200003c
:020000040000fa
:0400c400fe02000038
:020000040000fa
:0400c800fe02000034
:020000040000fa
:0400cc00fe02000030
:020000040000fa
:0400d000fe0200002c
:020000040000fa
:0400d400fe02000028
:020000040000fa
:0400d800fe02000024
:020000040000fa
:0400dc00fe02000020
:020000040000fa
:0400e000fe0200001c
:020000040000fa
:0400e400fe02000018
:020000040000fa
:0400e800fe02000014
:020000040000fa
:0400ec00fe02000010
:020000040000fa
:0400f000fe0200000c
:020000040000fa
:0400f400fe02000008
:020000040000fa
:0400f800fe02000004
:020000040000fa
:0400fc00fe02000000
:020000040000fa
:04010000fe020000fb
:020000040000fa
:04010400fe020000f7
:020000040000fa
:04010800fe020000f3
:020000040000fa
:04010c00fe020000ef
:020000040000fa
:04011000fe020000eb
:020000040000fa
:04011400fe020000e7
:020000040000fa
:04011800fe020000e3
:020000040000fa
:04011c00fe020000df
:020000040000fa
:04012000fe020000db
:020000040000fa
:04012400fe020000d7
:020000040000fa
:04012800fe020000d3
:020000040000fa
:04012c00fe020000cf
:020000040000fa
:04013000fe020000cb
:020000040000fa
:04013400fe020000c7
:020000040000fa
:04013800fe020000c3
:020000040000fa
:04013c00fe020000bf
:020000040000fa
:04014000fe020000bb
:020000040000fa
:04014400fe020000b7
:020000040000fa
:04014800fe020000b3
:020000040000fa
:04014c00fe020000af
:020000040000fa
:04015000fe020000ab
:020000040000fa
:04015400fe020000a7
:020000040000fa
:04015800fe020000a3
:020000040000fa
:04015c00fe0200009f
:020000040000fa
:04016000fe0200009b
:020000040000fa
:04016400fe02000097
:020000040000fa
:04016800fe02000093
:020000040000fa
:04016c00fe0200008f
:020000040000fa
:04017000fe0200008b
:020000040000fa
:04017400fe02000087
:020000040000fa
:04017800fe02000083
:020000040000fa
:04017c00fe0200007f
:020000040000fa
:04018000fe0200007b
:020000040000fa
:04018400fe02000077
:020000040000fa
:04018800fe02000073
:020000040000fa
:04018c00fe0200006f
:020000040000fa
:04019000fe0200006b
:020000040000fa
:04019400fe02000067
:020000040000fa
:04019800fe02000063
:020000040000fa
:04019c00fe0200005f
:020000040000fa
:0401a000fe0200005b
:020000040000fa
:0401a400fe02000057
:020000040000fa
:0401a800fe02000053
:020000040000fa
:0401ac00fe0200004f
:020000040000fa
:0401b000fe0200004b
:020000040000fa
:0401b400fe02000047
:020000040000fa
:0401b800fe02000043
:020000040000fa
:0401bc00fe0200003f
:020000040000fa
:0401c000fe0200003b
:020000040000fa
:0401c400fe02000037
:020000040000fa
:0401c800fe02000033
:020000040000fa
:0401cc00fe0200002f
:020000040000fa
:0401d000fe0200002b
:020000040000fa
:0401d400fe02000027
:020000040000fa
:0401d800fe02000023
:020000040000fa
:0401dc00fe0200001f
:020000040000fa
:0401e000fe0200001b
:020000040000fa
:0401e400fe02000017
:020000040000fa
:0401e800fe02000013
:020000040000fa
:0401ec00fe0200000f
:020000040000fa
:0401f000fe0200000b
:020000040000fa
:0401f400fe02000007
:020000040000fa
:0401f800fe02000003
:020000040000fa
:0401fc00fe020000ff
:020000040000fa
:04020000fe020000fa
:020000040000fa
:04020400fe020000f6
:020000040000fa
:04020800fe020000f2
:020000040000fa
:04020c00fe020000ee
:020000040000fa
:04021000fe020000ea
:020000040000fa
:04021400fe020000e6
:020000040000fa
:04021800fe020000e2
:020000040000fa
:04021c00fe020000de
:020000040000fa
:04022000fe020000da
:020000040000fa
:04022400fe020000d6
:020000040000fa
:04022800fe020000d2
:020000040000fa
:04022c00fe020000ce
:020000040000fa
:04023000fe020000ca
:020000040000fa
:04023400fe020000c6
:020000040000fa
:04023800fe020000c2
:020000040000fa
:04023c00fe020000be
:020000040000fa
:04024000fe020000ba
:020000040000fa
:04024400fe020000b6
:020000040000fa
:04024800fe020000b2
:020000040000fa
:04024c00fe020000ae
:020000040000fa
:04025000fe020000aa
:020000040000fa
:04025400fe020000a6
:020000040000fa
:04025800fe020000a2
:020000040000fa
:04025c00fe0200009e
:020000040000fa
:04026000fe0200009a
:020000040000fa
:04026400fe02000096
:020000040000fa
:10040000ef0021000eff27000e0188000000000011
:10041000000020000000e000020032000001200087
:100420002002880014000700760007000000e000aa
:1004300003003a00804b2100010020000200370039
:100440000000200001002000810f70000100320038
:100450000f000700000020000000e0000200320052
:1004600000000200000000007e14020000000000f6
:100470000040da000000fe00c00220000000e000a2
:1004800002003200002020009001880000000600d9
:10049000a1028800800478000000eb001f003700f4
:1004a000e284440054a0b4009905ba00e2844400f8
:1004b00054a0b4009906ba00e284440054a0b400e9
:1004c0000006eb00476fde00fd07b200ae018800ba
:1004d000636ce10003003a000ad801000000eb0061
:1004e0000e003700606ce10008003a00004deb00a0
:1004f0000a05e800020039003420ec000af0a000f0
:100500008b05e900f9ff3e00040037006168e10057
:10051000010032000086eb000b00070019c7ba008b
:100520000e04e0001905ba0003003a000a00e000da
:10053000dbff3a0000000600fe07b200ae028800b2
:100540008a047800f5ff37000cd0a300e20f4d00bd
:100550001c00390089027800354dba000a05e80010
:10056000020039003420ec000af0a0008b05e900fd
:100570000f003200254dba000a05e80002003900dc
:100580003420ec000af0a0008b05e90008003200de
:100590000c00e0000600320015cdba000a05e800a4
:1005a000020039003420ec000af0a0008b05e900bd
:1005b0008984e80054a0b4000b00e000e2ff3a0098
:1005c000000006009902ba00055d78008b05e9007d
:1005d000f7ff3200c82ade00055d78008b05e900d0
:1005e000f3ff32000c00e000f1ff320019ddba0029
:1005f000eeff3700de130400000000000040da00c8
:100600000000fe0000000500889fbe008a9fbe001b
:1006100030044200b0844a0030054b0090854b0006
:100620006000b1000898be000a90be000440e100de
:1006300005c8e10006d0e10007d8e1000200310062
:10064000680040001008e8004f05be004f04be00df
:1006500000000600889fbe008a9fbe00100478003c
:100660009004900020059000b005900004185400fc
:1006700005985c0006185d0007985d0011002000d9
:100680000440e10005c8e10006d0e10007d8e10020
:10069000010039008000eb00108810004f05be00fb
:1006a0004f04be00000006001200fa00889fbe0042
:1006b0008a9fbe008c9fbe00e0b79f00f1b79f00ed
:1006c00082bf9f0093bf9f000605be000404be00ca
:1006d0000000eb00d0b79f00c0b79f00b0b79f00ed
:1006e000a0b79f0090b79f000006eb005fb1970096
:1006f000cfb09700820141003fb097000200e000b8
:1007000004003d00370007007e805700beff070051
:1007100003003700330007007e805700cdff07003d
:10072000dfb697000d00e0000c0035006fb29700b7
:10073000ffb297000fbb97009fbb970010002000ef
:10074000010020006011b800000272008182720076
:1007500002037300838373001b0007000c06e8008c
:1007600001042000810f5600e0ff3a000d00e00078
:1007700004003d000802be000a03be007e80570050
:10078000a1ff07005fa897000000e00005003a0005
:100790001fb29700afb297003fb39700cfb3970057
:1007a000090007006fb09700ffb097000fb99700de
:1007b0009fb997004f06be004f05be004f04be0014
:1007c0000080fa000000060001000700000006009b
:1007d000a4b79f00b5b79f00c6b79f00d7b79f00cb
:1007e000000006004f09de0082817100b3b79f0050
:1007f0004f01de008180400082807000a1b79f0021
:100800008fb097004f09de0000004000020070002a
:1008100090b79f007fa897004f01de0081804000c5
:100820008280700081b79f000d0007004f3ade0004
:100830000000400004007000f0af9f0008000700b7
:100840000402420085824a0006034b0087834b0066
:10085000dfff07000802be000a03be00000006001a
:100860002fb29700bfb297004fb39700dfb3970046
:1008700000000600881f780018002000881f7800fc
:1008800089ff07008f87e9004f0478000000060009
:10089000801feb0084ff07008f87e900000006003f
:1008a000889fbe008a9fbe00e00f5000e08f580076
:1008b000e00f5900e08f59000c003d006044b80083
:1008c0006055b8000000540081805c0002015d00aa
:1008d00083815d00180020001500070008003d001e
:1008e000180007000004eb00050037000004eb00cf
:1008f0000f00070002003d00120007001800200052
:10090000dcff07000800e000060032006022b800ab
:100910006033b8000000520081805a0002015b0081
:1009200083815b004f05be004f04be00000006003f
:10093000e00f5200e08f5a00e00f5b00e08f5b0099
:10094000000006006044b8006055b800040254007e
:1009500085825c0006035d0087835d000000060061
:10096000889fbe008a9fbe008c1f7800e00f500059
:10097000e08f5800e00f5900e08f59000d003d0056
:100980006044b8006055b8000000540081805c00ed
:1009900002015d0083815d001c0020000820e10051
:1009a00009a8e1000ab0e1000bb8e1000d003d002c
:1009b000080037000006eb00e00f5200e08f5a00fd
:1009c000e00f5b00e08f5b0006003d006044b80074
:1009d0006055b8000402540085825c0006035d0087
:1009e00087835d00aaff07000c00e00006003200cc
:1009f0006022b8006033b8000000520081805a00c5
:100a000002015b0083815b004f0678004f05be004a
:100a10004f04be0000000600889fbe008a9fbe00f3
:100a20008c1f78000006eb00e00f5000e08f5800ac
:100a3000e00f5900e08f590007003d006044b80006
:100a40006055b8000000540081805c0002015d0028
:100a500083815d001c002000e00f5200e08f5a00ef
:100a6000e00f5b00e08f5b0007003d006044b800d2
:100a70006055b8000402540085825c0006035d00e6
:100a800087835d000c00a2000c0007000c00e00052
:100a9000060032006022b8006033b8000000520047
:100aa00081805a0002015b0083815b004f06780061
:100ab0004f05be004f04be0000000600889fbe0028
:100ac0008a9fbe008c9fbe000404b8000506b800d3
:100ad0008904460060854e000606b8000a054600f7
:100ae000e0854e000706b8008b054600040eb800ee
:100af000890446000a854e00e0854d00050eb800c9
:100b00000a0546008b854e00060eb8008b05460090
:100b10000416b8000a0546008b854e000516b8007d
:100b20008b054600041eb8008b0546000800be0079
:100b30000a01be004f06be004f05be004f04be00b6
:100b40000000060080007800010178003104e00018
:0c0b5000fdff3a0000005100000006000c
:020000040000fa
:100b5c004d650000676100006e20000042690000d6
:100b6c007264000000450000434500004e20000068
:100b7c00343300003530000000460000616c00008a
:100b8c006c200000323000003137000000420000c1
:100b9c004c4500005f430000656e0000747200005d
:080bac00616c00000000000074
:020000040000fa
:100bb4000400fa00100798009e009000418088000d
:100bc400408080000000e00005003a00001e200084
:100bd4001080880000112000208088000a0037005f
:100be40040808000e10f500005003a0000322000f0
:100bf40010808800001e200020808800020037003a
:100c04000000eb001400370010002000cc060700a1
:100c14000000eb00d906070000a8210061002000b5
:100c24004407070010002000d406070000c4290070
:100c3400010020003f0707000040eb00c905070042
:100c4400004f78009e4078000040eb00bc05070090
:100c54002e000700100020000080fa0000000600ab
:100c64000000fa0010c0b300eb05070010c0b30089
:100c7400c30507000040eb00c105070000fa20008f
:100c8400010020002b0707000080fa000000060086
:100c94000000fa00408080000000e0000d003a00ef
:100ca400a1c0b30080c8b300a505070000fa200066
:100cb400010020001f07070021c0b30090c8b30043
:100cc4009f05070000fa2000010020001907070013
:100cd4000c003700a1c0b30080c8b300980507001a
:100ce40000fa2000010020001207070021c0b30011
:100cf40090c8b3009205070000fa2000010020000c
:100d04000c0707000080fa00000006000a00fa0041
:100d1400dfff0700c1c0b30000c1b30088050700ae
:100d2400408080000000e00011003a0020c8b300b9
:100d3400004f7800a0c0b3004047980080c0b300c3
:100d44001047980000c3b300204798000040eb0010
:100d540030479800300020003007980080002000c1
:100d640040079800a0c0b300504798001000370017
:100d740010c8b300004f7800a0c1b30040479800ea
:100d840000c2b3001047980000c6b3002047980083
:100d94000040eb0030479800000220003007980024
:100da400700120004007980020c0b300504798000d
:100db4009e40780040c0b3006105070000fa20009f
:100dc40001002000db060700108080004300de00e5
:100dd400004078000040e9008040780040c1b30042
:100de40057050700be40900050c1b30054050700ea
:100df4004e4090008080fb003e4090000080fb004d
:100e0400008050000080e9000000e00001003d0087
:100e1400670040004380de00004078008040780096
:100e240060c1b300460507001e4090000080fb002f
:100e34004300de00004078000040e9008040780074
:100e440070c1b3003e0507002e4090000080fb00f7
:100e54004300de00004078000040e9008040780054
:100e640080c1b30036050700208080000040780070
:100e74000040e9008040780090c1b30030050700cd
:100e8400208080000000e9004800de000040780077
:100e940080407800a0c1b300290507003e009000ff
:100ea400004078000040e90080407800b0c1b30001
:100eb400230507003e0090004800de000040780053
:100ec40080407800c0c1b3001d0507004e009000ab
:100ed400004078000040e90080407800d0c1b300b1
:100ee400170507004e0090004800de00004078001f
:100ef40080407800e0c1b300110507005e40900017
:100f04000040e90080407800f0c1b3000c05070000
:100f14008040eb0000c3b300090507008040eb00ec
:100f240010c3b3000605070010808000004078005d
:100f34000040e9008040780040c3b300000507008a
:100f4400108080000000e9004800de0000407800c6
:100f54008040780050c3b300f90407008040eb00e0
:100f640020c3b300f60407008040eb0030c3b30095
:100f7400f304070020808000004078000040e9006e
:100f84008040780060c3b300ed0407002080800037
:100f94000000e9004800de0000407800804078004e
:100fa40070c3b300e604070001c8b300e0c8b3008f
:100fb400e304070000482800e10120005d06070063
:100fc4000080fa00000006000000fa001080800093
:100fd4000080fa00000006000000fa002080800073
:100fe4000080fa00000006000200fa0000c4b3000a
:100ff40009050700f4040700004f780000c8b30097
:10100400004f78001e407800dd04070010c2b300d2
:1010140001050700ec040700004f7800f1c5b30098
:101024001ecf60001e407800d50407000080fa003f
:10103400000006000400fa00000f78001107980071
:10104400a0c2b300f40407001e007800004078003a
:10105400cb040700b0c2b300ef0407001e00780001
:101064004800de0000407800c5040700c0c2b30099
:10107400e90407001e00900000407800c004070047
:10108400d0c2b300e40407001e0090004800de0054
:1010940000407800ba0407000080fa00000006004f
:1010a4000600fa00100798002107980030c6b30024
:1010b400d90407001e0090004b00de0000407800b9
:1010c400af04070040c6b300d30407009e0090009d
:1010d400007e2000008060004500de0000407800b3
:1010e400a704070050c6b300cb0407001e009000fd
:1010f400004078007f406000a104070000c6b300f0
:10110400c50407002e0090004b00de00004078006c
:101114009b04070010c6b300bf040700ae00900094
:10112400007e2000008060004500de000040780062
:101134009304070020c6b300b70407002e009000f4
:10114400004078007f4060008d04070020c2b30097
:10115400b10407009c040700004f7800f0cbb300f3
:101164001e4f60001e407800850407000080fa00ce
:10117400000006000400fa001007980030c6b3000f
:10118400a50407001e0090004b00de00004078001c
:101194007b04070040c6b3009f0407009e00900034
:1011a400007e2000008060004500de0000407800e2
:1011b4007304070050c6b300970407001e00900094
:1011c400004078007f4060006d04070020c2b30037
:1011d400910407007c040700004f78001e64a000ff
:1011e4001e407800660407000080fa000000060034
:1011f4000400fa00204798002e409000e34f50006e
:101204000200360030c0b3002047980020c2b3006b
:10121400810407006c040700004f780000cfb3007e
:101224001e4f60002e4090000080fb004200dd0055
:10123400804078001e40780000c07000004f7800a5
:101244002e4090001e4f70001e4078004c04070092
:101254002e41900061002100824878000080fa004d
:10126400000006000600fa00100798002107980005
:101274000000eb00000f78002e0090000000e0005a
:1012840003003a001e0090002dfe0700200798007e
:1012940020c0b300600407000000eb00000f7800da
:1012a400050037001e0090001e004000104078002a
:1012b400330407001e0fe8002e0090009e00780003
:1012c400808f5000f7ff39000080fa00000006000c
:1012d4000200fa0000c4b3004f0407003a040700f8
:1012e400004f78001e74a1001e40780024040700fb
:1012f4000080fa00000006000400fa00204798006d
:101304003147980001003700000000002e40900093
:1013140014040700004f78003e4090001e40600017
:101324000004e000f8ff3a00100020000080fa00fa
:10133400000006000400fa00000f7800110798006e
:101344001e007800004078008040780060c4b3003c
:10135400fb0307001e0078004800de000040780010
:101364008040780070c4b300f50307001e009000ad
:10137400004078008040780080c4b300f003070088
:101384001e0090004800de00004078008040780095
:1013940090c4b300ea0307000080fa0000000600ce
:1013a4000600fa00008fbe00220798000000eb0040
:1013b40010050700050037002e0090004800de00ed
:1013c4000c0507002e0090000a0507001e0090007f
:1013d4001e00700000f0a7000000ea000000ea0010
:1013e4004f00de00004078000081eb008081eb00bc
:1013f4001e0f41005e9749000004e000eeff3a0032
:101404000080fa00000006000000fa0000c9b300e2
:101414000104070000c1b300d903070000cbb300e7
:10142400d70307000080fa00000006000600fa0057
:10143400000f780011079800220798001e0078001a
:10144400004078008040780060c4b300bc0307000b
:101454001e0078004880de0000407800804078005c
:1014640070c4b300b60307001e009000004078006b
:101474008040780080c4b300b10307001e009000d0
:101484004880de00004078008040780090c4b300bb
:10149400ab03070020c0b300df0307000000eb002c
:1014a400d40407002e0090004800de00d104070099
:1014b4002e009000cf0407000080fa000000060010
:1014c4000a00fa00000f780011079800220798001c
:1014d400330798004407980010c9b300ce030700ef
:1014e4001e00780000407800a503070020c9b3005f
:1014f400c90307001e0078004880de000040780021
:101504009f03070030c9b300c30307001e00900007
:10151400004078009a03070040c9b300be030700e7
:101524001e0090004880de0000407800940307000d
:1015340050c9b300b80307002e00900000407800a3
:101544008f03070060c9b300b30307002e009000a7
:101554004880de00004078008903070070c9b300aa
:10156400ad0307003e0090000040780084030700ac
:1015740080c9b300a80307003e0090004880de0045
:10158400004078007e03070030c6b300a2030700c2
:101594004e0090004b00de00004078007803070006
:1015a40040c6b3009c030700ce009000007e2000dc
:1015b400008060004500de000040780070030700f2
:1015c40050c6b300940307004e009000004078001a
:1015d4007f4060006a03070000c9b3008e03070060
:1015e40000c8b3006603070001c8b30000c9b30014
:1015f40041ff07000080fa00000006000800fa001e
:10160400000f78001107980022079800330798000c
:101614009e0090002e009000008040003e0290004a
:10162400800178001e0178009e0090001e00780062
:10163400a3ff07000080fa00000006000800fa007b
:10164400000f7800110798002207980033079800cc
:101654002e0090001e0040003e0290009e0190006b
:10166400000178009e0090001e00780094ff07009f
:101674000080fa00000006000a00fa00000f78005b
:101684001107980022079800330798004407980030
:101694009e0090003e009000808040002e0090004c
:1016a4001e0040008002eb004e0290008101780091
:1016b400000178009e0090001e007800ea000700f8
:1016c4000080fa00000006000a00fa00000f78000b
:1016d40011079800220798003307980044079800e0
:1016e4009e0090003e009000808040002e009000fc
:1016f4001e004000150020004e0290008101780079
:10170400000178009e0090001e007800d6000700bb
:101714000080fa00000006000200fa00000f7800c2
:10172400208080000000e9008000780010808000a4
:101734000000e900150020001e02780081017800f5
:10174400000178008000eb000000eb00c6000700f9
:101754000080fa00000006000800fa00000f78007c
:101764001107980022079800330798000002eb0045
:10177400be0190002e0190009e0090001e00780093
:10178400750007000080fa00000006000800fa0057
:10179400000f78001107980022079800330798007b
:1017a40014002000be0190002e0190009e009000c5
:1017b4001e007800680007000080fa0000000600a0
:1017c4000e00fa00000f7800110798002207980015
:1017d4003307980044079800550798006607980057
:1017e4008003eb006e039000de0290004e02900036
:1017f400be0190002e0190009e0090001e00780013
:10180400ef0007000080fa00000006000e00fa0056
:10181400000f7800110798002207980033079800fa
:1018240044079800550798006607980017002000a1
:101834006e039000de0290004e029000be01900004
:101844002e0190009e0090001e007800dc0007002e
:101854000080fa00000006000a00fa00000f780079
:10186400110798002207980033079800440798004e
:101874008002eb004e029000be0190002e01900009
:101884009e0090001e0078003b0107000080fa00d3
:10189400000006000a00fa00000f78001107980003
:1018a4002207980033079800440798001500200089
:1018b4004e029000be0190002e0190009e00900008
:1018c4001e0078002c0107000080fa0000000600ca
:1018d4000c00fa00000f7800110798002207980006
:1018e40033079800044f9800550798000003eb0055
:1018f400de0290000e4a9000be0190002e0190007e
:101904009e0090001e007800710107000080fa001c
:10191400000006000c00fa00000f78001107980080
:101924002207980033079800044f98005507980041
:1019340016002000de0290000e4a9000be019000c6
:101944002e0190009e0090001e00780060010700a8
:101954000080fa00000006000a00fa00000f780078
:10196400110798002207980033079800440798004d
:1019740090c9b300a80207001e0078000040780058
:101984007f020700a0c9b300a30207001e0078006d
:101994004880de000040780079020700b0c9b30037
:1019a4009d0207001e0090000040780074020700aa
:1019b400c0c9b300980207001e0090004880de00f2
:1019c400004078006e020700d0c9b30092020700fd
:1019d4002e009000004078006902070030c6b30072
:1019e4008d0207003e0090004b00de0000407800ae
:1019f4006302070040c6b30087020700be009000e0
:101a0400007e2000008060004500de000040780079
:101a14005b02070050c6b3007f0207003e0090003f
:101a2400004078007f4060005502070000c9b30001
:101a3400790207004e0090000000e000030032002d
:101a440000c6b3004e0207000200370000c4b30012
:101a54004b02070001c4b30000c9b30026fe07000f
:101a64000080fa00000006000c00fa00000f780065
:101a7400110798002207980033079800440798003c
:101a84005507980010c9b300630207001e007800d0
:101a9400004078003a02070020c9b3005e02070044
:101aa4001e0078004880de00004078003402070001
:101ab40030c9b300580207001e00900000407800af
:101ac4002f02070040c9b300530207001e00900014
:101ad4004880de00004078002902070050c9b300a6
:101ae4004d0207002e0090000040780024020700f9
:101af40060c9b300480207002e0090004880de0051
:101b0400004078001e02070070c9b30042020700bb
:101b14003e009000004078001902070080c9b3001d
:101b24003d0207003e0090004880de00004078003f
:101b34001302070030c6b300370207004e009000be
:101b44004b00de00004078000d02070040c6b300e1
:101b540031020700ce009000007e2000008060006b
:101b64004500de00004078000502070050c6b300bf
:101b7400290207004e009000004078007f4060007a
:101b8400ff01070000c9b300230207005e009000b4
:101b94000000e0000300320000cbb300f8010700ae
:101ba4000200370000c9b300f501070001c8b30003
:101bb40000c9b300d0fd07000080fa000000060051
:101bc4001000fa00000f780011079800220798000f
:101bd4003307980044079800550798006607980053
:101be4007707980010c9b3000b0207001e007800a5
:101bf40000407800e201070020c9b3000602070094
:101c04001e0078004880de0000407800dc010700f8
:101c140030c9b300000207001e00900000407800a5
:101c2400d701070040c9b300fb0107001e00900064
:101c34004880de0000407800d101070050c9b3009d
:101c4400f50107002e00900000407800cc01070049
:101c540060c9b300f00107002e0090004880de0048
:101c640000407800c601070070c9b300ea0107000c
:101c74003e00900000407800c101070080c9b30015
:101c8400e50107003e0090004880de000040780037
:101c9400bb01070090cab300df0107004e009000ab
:101ca40000407800b6010700a0cab300da010700bb
:101cb4004e0090004880de0000407800b00107002c
:101cc400b0cab300d40107005e0090000040780061
:101cd400ab010700c0cab300cf0107005e0090004b
:101ce4004880de0000407800a501070030c6b3003c
:101cf400c90107006e0090004b00de000040780030
:101d04009f01070040c6b300c3010700ee00900026
:101d1400007e2000008060004500de000040780066
:101d24009701070050c6b300bb0107006e00900086
:101d3400004078007f4060009101070000c9b300b3
:101d4400b50107007e0090000000e00003003200af
:101d540010cab3008a0107000200370010c8b3009c
:101d64008701070001c8b30000c9b30062fd070082
:101d74000080fa00000006000c00fa00000f780052
:101d84001107980022079800330798004407980029
:101d94005507980050cab3009f0107001e00780041
:101da400004078007601070060cab3009a0107007a
:101db4001e0078004880de000040780070010700b3
:101dc40070cab300940107001e0090000040780020
:101dd4006b01070080cab3008f0107001e0090004a
:101de4004880de00004078006501070010cab30097
:101df400890107002e009000004078006001070070
:101e040020cab300840107002e0090004880de0041
:101e1400004078005a01070030cab3007e01070071
:101e24003e009000004078005501070040cab3000e
:101e3400790107003e0090004880de0000407800f1
:101e44004f01070030c6b300730107004e00900035
:101e54004b00de00004078004901070040c6b30093
:101e64006d010700ce009000007e2000008060001d
:101e74004500de00004078004101070050c6b30071
:101e8400650107004e009000004078007f4060002c
:101e94003b01070000cab3005f0107005e00900029
:101ea4000000e0000300320000ccb300340107005e
:101eb4000200370000c8b3003101070001c8b300b5
:101ec40000cab3000cfd07000080fa000000060001
:101ed4000e00fa00000f78001107980022079800fe
:101ee40033079800044f9800550798006607980038
:101ef40050cab300480107001e0078000040780073
:101f04001f01070060cab300430107001e007800e8
:101f14004880de00004078001901070070cab30051
:101f24003d0107001e0090000040780014010700e6
:101f340080cab300380107001e0090004880de000c
:101f4400004078000e01070010cab30032010700f8
:101f54002e009000004078000901070020cab30059
:101f64002d0107002e0090004880de00004078001c
:101f74000301070030cab300270107003e009000a8
:101f840000407800fe00070040cab30022010700a9
:101f94003e0090004880de0000407800f800070012
:101fa40030c6b3001c0107005e0090004b00de0049
:101fb40000407800f200070040c6b3001601070095
:101fc400de009000007e2000008060004500de00fe
:101fd40000407800ea00070050c6b3000e01070075
:101fe4005e009000004078007f406000e40007003d
:101ff40000cab300080107006e0090000000e00072
:10200400060032000e489000e340600000cdb300ab
:1020140000c07000da000700050037000e48900089
:10202400e340600000c9b30000c07000d4000700a2
:1020340001c8b30000cab300affc07000080fa0077
:10204400000006000200fa00000f78001e0078006d
:102054000000e0000400320011c0b30070ccb300f3
:10206400b7000700030037008040eb0070ccb300da
:10207400b30007000080fa00000006000200fa0026
:10208400004f78009e407800b0c8b300ac00070051
:102094000080fa00000006000200fa00004f7800f9
:1020a4009e407800d0c8b300a50007000080fa0065
:1020b400000006000400fa00000f78002147980091
:1020c4001e0078000000e000070032002e4090005f
:1020d4006f4060000074a00080407800a0c8b30086
:1020e40097000700050037002e4090006f40600005
:1020f40080407800a0c8b300910007000080fa0077
:10210400000006000400fa00000f78002147980040
:102114001e0078000000e000070032002e4090000e
:102124006f4060000074a00080407800c0c8b30015
:1021340083000700050037002e4090006f406000c8
:1021440080407800c0c8b3007d0007000080fa001a
:10215400000006000400fa001007980020c0b30035
:10216400004f780040808000e10f500002003a00e8
:1021740040c0b300004f78001e0090000000e00053
:102184000f00320080cbb3001e4070008040780006
:1021940000c7b3006a00070041c0b30010c7b30012
:1021a4006700070000cfb3006e0007000024a00002
:1021b4008040780000cfb300610007000a003700b8
:1021c40000cfb30067000700b1cfb3000140600047
:1021d4008040780000cfb300590007008040eb0036
:1021e40000c7b300560007000080fa000000060094
:1021f4000000fa0010cfb3005a0007000080fb0073
:10220400640060000000e0000200320010002000c2
:10221400010037000000eb000080fa000000060017
:102224000a00fa00300798004107980020c7b3005d
:102234004c0007000080fb00000f780030c7b3009b
:10224400480007000080fb001007980040c7b30057
:1022540044000700404798001e0078004200dd005b
:10226400000f78001e0090004200dd001007980067
:102274004e4090000080fb00630060001e0f700061
:102284004e4090000080fb004200de0000407800d9
:102294000080fb00630060009e009000010070005d
:1022a400100798003e0090001e0878004e00900031
:1022b4009e0090000108780041c0b30010cfb30025
:1022c4001f000700100020000080fa000000060034
:1022d4000200fa00000f78001e0078000000e00001
:1022e4000400320001c8b30010c0b300140007009a
:1022f400030037008040eb0010c0b300100007005b
:102304000080fa00000006000200fa00000f7800c6
:102314001e0078000000e0000400320021c0b30079
:1023240010c0b30006000700030037008040eb0034
:1023340010c0b300020007000080fa00000006008d
:102344000200fa00004f7800114798001e40780000
:10235400310007001e409000090007000080fa00c9
:10236400000006000200fa00004f78001e407800ca
:1023740029000700140007000080fa00000006008e
:102384000200fa00004f780000fa2000010020004b
:10239400680107000000eb00e90007000000eb0003
:1023a400140107001e80fb0012010700100020002a
:1023b400e300070000fa2000010020005d0107008f
:1023c4000080fa00000006000200fa000040eb0062
:1023d400004f780000fa200001002000550107009a
:1023e4000000eb00d60007000004200001010700f4
:1023f4000f010700004f780010002000d0000700f4
:1024040000fa2000010020004a0107001e40780065
:102414000080fa00000006000200fa00004f780075
:1024240000fa200001002000420107000000eb0038
:10243400c300070000082000ee0007001e80fb0018
:10244400ec00070010002000bd00070000fa200087
:1024540001002000370107000080fa000000060098
:102464000200fa0000fa20000100200031010700f8
:102474000000eb00b2000700000c2000dd000700a4
:10248400eb000700004f780010002000ac000700ac
:1024940000fa200001002000260107001e407800f9
:1024a4000080fa00000006000000fa00707280004c
:1024b4007f006000707288006ecea9006eeea900e5
:1024c4006f0ea900007280007f0060000072880017
:1024d40060cea900610ea900e100070010002000f1
:1024e400a600070010002000b1f90700100020002a
:1024f40077ff070010002000d2fe0700a1c0b30040
:1025040010002000ebfe070000c0eb00dbfe07001c
:10251400e13d210010002000010001001000200016
:102524000cff07000080fa00000006002e00fa00ed
:10253400e05a2800e20047000a000900b058780079
:10254400b000b100905b2800ed00470009000900cd
:10255400b0587800a000b100305c2800f7004700b4
:1025640009000900b0587800a000b100d05c280030
:1025740011022000810047000b000900b0587800c8
:10258400c000b100800c2000000f78000080eb0038
:1025940061fc07001e007800cf80de006109b900ed
:1025a40004902000d50320006033b80019f9070017
:1025b400843e2000050020006033b800acf807001a
:1025c4000000be00db00070000802f0052fc070063
:1025d4001e007800cf80de006109b900049020005d
:1025e400d50320006033b8000af90700843e2000b8
:1025f400050020006033b8009df807000000be000d
:10260400cc00070000fe2f0043fc07001e007800ea
:10261400cf80de006109b90004902000d5032000ba
:102624006033b800fbf80700843e2000050020005a
:102634006033b8008ef807000000be00bd0007003c
:10264400007e200034fc07001e007800cf80de00ee
:102654006109b90004902000d50320006033b8005c
:10266400ecf80700843e2000050020006033b80029
:102674007ff807000000be00ae000700f001200054
:1026840025fc07001e007800cf80de006109b90038
:1026940004902000d50320006033b800ddf8070063
:1026a400843e2000050020006033b80070f8070065
:1026b4000000be009f000700f07f200016fc07000a
:1026c4001e007800cf80de006109b900049020006c
:1026d400d50320006033b800cef80700843e200004
:1026e400050020006033b80061f807000000be0058
:1026f40090000700f0812f0007fc07001e007800ff
:10270400cf80de006109b90004902000d5032000c9
:102714006033b800bff80700843e200005002000a5
:102724006033b80052f807000000be0081000700c3
:102734000000eb00f8fb07000080fa000000060030
:102744000200fa00000f78001e00780000407800b4
:10275400614060000080fb00610060004700dd0014
:1027640012728000f1f72f008100610001007000f7
:10277400107288000080fa00000006000200fa00cf
:10278400000f78001e00780000407800614060006f
:102794000080fb00610060004500dd0012728000d3
:1027a400f1fd2f00810061000100700010728800ab
:1027b4000080fa00000006000200fa00000f780012
:1027c4001e00780000407800614060000080fb003b
:1027d400610060004600dd0012728000f1fb2f00f2
:1027e4008100610001007000107288000080fa000e
:1027f400000006000400fa00100798001e00900074
:1028040040138800010037002b00070000138000ec
:10281400610060000000e000fbff32002e000700b2
:1028240040138000000f78000080fa0000000600ca
:102834000200fa006822ef0000000000001380008c
:10284400610060000000e000fcff320040138000e3
:10285400000f78001e0078000080fa0000000600d7
:102864000000fa006382a9006362a9006342a90020
:1028740062a2a8006322a9006302a90062c2a800a0
:1028840061e2a8000080fa00000006000000fa00df
:1028940071728000c00f2000008060007072880098
:1028a40001728000c00f2000008060000072880068
:1028b4000080fa00000006000000fa00420ea800a2
:1028c4000080fa00000006000000fa00420ea90091
:1028d4000080fa00000006000000fa00422ea80062
:1028e4000080fa00000006000000fa00422ea90051
:1028f4000080fa00000006000000fa00e3ff070071
:10290400e9fe070009ff0700ebff0700f6ff0700d9
:1029140000402d000103200006000700eaff070025
:10292400edff070000402d00010320000100070017
:04293400f5ff370074
:020000040000fa
:10293800f03fb1000180b10006003500ee03090048
:1029480000000000403fb1000180b100fbff3d00e6
:102958001000b000203fb0000200350000800900e0
:08296800000000000000060061
:020000040000fa
:102970000a100000040000008200000000093d0071
:1029800000000000001000000a00000080000000ad
:042990000000000043
:00000001FF
